{
  "contractName": "BowProxy",
  "abi": [
    {
      "inputs": [
        {
          "internalType": "string",
          "name": "_name",
          "type": "string"
        },
        {
          "internalType": "string",
          "name": "_symbol",
          "type": "string"
        },
        {
          "internalType": "address",
          "name": "_tokenAddress",
          "type": "address"
        }
      ],
      "stateMutability": "nonpayable",
      "type": "constructor"
    },
    {
      "anonymous": false,
      "inputs": [
        {
          "indexed": true,
          "internalType": "address",
          "name": "owner",
          "type": "address"
        },
        {
          "indexed": true,
          "internalType": "address",
          "name": "spender",
          "type": "address"
        },
        {
          "indexed": false,
          "internalType": "uint256",
          "name": "value",
          "type": "uint256"
        }
      ],
      "name": "Approval",
      "type": "event"
    },
    {
      "anonymous": false,
      "inputs": [
        {
          "indexed": true,
          "internalType": "address",
          "name": "user",
          "type": "address"
        },
        {
          "indexed": true,
          "internalType": "uint256",
          "name": "pid",
          "type": "uint256"
        },
        {
          "indexed": false,
          "internalType": "uint256",
          "name": "amount",
          "type": "uint256"
        }
      ],
      "name": "Deposit",
      "type": "event"
    },
    {
      "anonymous": false,
      "inputs": [
        {
          "indexed": true,
          "internalType": "address",
          "name": "user",
          "type": "address"
        },
        {
          "indexed": true,
          "internalType": "uint256",
          "name": "pid",
          "type": "uint256"
        },
        {
          "indexed": false,
          "internalType": "uint256",
          "name": "amount",
          "type": "uint256"
        }
      ],
      "name": "EmergencyWithdraw",
      "type": "event"
    },
    {
      "anonymous": false,
      "inputs": [
        {
          "indexed": true,
          "internalType": "address",
          "name": "previousOwner",
          "type": "address"
        },
        {
          "indexed": true,
          "internalType": "address",
          "name": "newOwner",
          "type": "address"
        }
      ],
      "name": "OwnershipTransferred",
      "type": "event"
    },
    {
      "anonymous": false,
      "inputs": [
        {
          "indexed": true,
          "internalType": "address",
          "name": "from",
          "type": "address"
        },
        {
          "indexed": true,
          "internalType": "address",
          "name": "to",
          "type": "address"
        },
        {
          "indexed": false,
          "internalType": "uint256",
          "name": "value",
          "type": "uint256"
        }
      ],
      "name": "Transfer",
      "type": "event"
    },
    {
      "anonymous": false,
      "inputs": [
        {
          "indexed": true,
          "internalType": "address",
          "name": "user",
          "type": "address"
        },
        {
          "indexed": true,
          "internalType": "uint256",
          "name": "pid",
          "type": "uint256"
        },
        {
          "indexed": false,
          "internalType": "uint256",
          "name": "amount",
          "type": "uint256"
        }
      ],
      "name": "Withdraw",
      "type": "event"
    },
    {
      "inputs": [
        {
          "internalType": "address",
          "name": "owner",
          "type": "address"
        },
        {
          "internalType": "address",
          "name": "spender",
          "type": "address"
        }
      ],
      "name": "allowance",
      "outputs": [
        {
          "internalType": "uint256",
          "name": "",
          "type": "uint256"
        }
      ],
      "stateMutability": "view",
      "type": "function"
    },
    {
      "inputs": [
        {
          "internalType": "address",
          "name": "spender",
          "type": "address"
        },
        {
          "internalType": "uint256",
          "name": "amount",
          "type": "uint256"
        }
      ],
      "name": "approve",
      "outputs": [
        {
          "internalType": "bool",
          "name": "",
          "type": "bool"
        }
      ],
      "stateMutability": "nonpayable",
      "type": "function"
    },
    {
      "inputs": [
        {
          "internalType": "address",
          "name": "account",
          "type": "address"
        }
      ],
      "name": "balanceOf",
      "outputs": [
        {
          "internalType": "uint256",
          "name": "",
          "type": "uint256"
        }
      ],
      "stateMutability": "view",
      "type": "function"
    },
    {
      "inputs": [],
      "name": "decimals",
      "outputs": [
        {
          "internalType": "uint8",
          "name": "",
          "type": "uint8"
        }
      ],
      "stateMutability": "view",
      "type": "function"
    },
    {
      "inputs": [
        {
          "internalType": "address",
          "name": "spender",
          "type": "address"
        },
        {
          "internalType": "uint256",
          "name": "subtractedValue",
          "type": "uint256"
        }
      ],
      "name": "decreaseAllowance",
      "outputs": [
        {
          "internalType": "bool",
          "name": "",
          "type": "bool"
        }
      ],
      "stateMutability": "nonpayable",
      "type": "function"
    },
    {
      "inputs": [
        {
          "internalType": "address",
          "name": "spender",
          "type": "address"
        },
        {
          "internalType": "uint256",
          "name": "addedValue",
          "type": "uint256"
        }
      ],
      "name": "increaseAllowance",
      "outputs": [
        {
          "internalType": "bool",
          "name": "",
          "type": "bool"
        }
      ],
      "stateMutability": "nonpayable",
      "type": "function"
    },
    {
      "inputs": [],
      "name": "name",
      "outputs": [
        {
          "internalType": "string",
          "name": "",
          "type": "string"
        }
      ],
      "stateMutability": "view",
      "type": "function"
    },
    {
      "inputs": [],
      "name": "owner",
      "outputs": [
        {
          "internalType": "address",
          "name": "",
          "type": "address"
        }
      ],
      "stateMutability": "view",
      "type": "function"
    },
    {
      "inputs": [],
      "name": "renounceOwnership",
      "outputs": [],
      "stateMutability": "nonpayable",
      "type": "function"
    },
    {
      "inputs": [],
      "name": "symbol",
      "outputs": [
        {
          "internalType": "string",
          "name": "",
          "type": "string"
        }
      ],
      "stateMutability": "view",
      "type": "function"
    },
    {
      "inputs": [],
      "name": "totalSupply",
      "outputs": [
        {
          "internalType": "uint256",
          "name": "",
          "type": "uint256"
        }
      ],
      "stateMutability": "view",
      "type": "function"
    },
    {
      "inputs": [
        {
          "internalType": "address",
          "name": "recipient",
          "type": "address"
        },
        {
          "internalType": "uint256",
          "name": "amount",
          "type": "uint256"
        }
      ],
      "name": "transfer",
      "outputs": [
        {
          "internalType": "bool",
          "name": "",
          "type": "bool"
        }
      ],
      "stateMutability": "nonpayable",
      "type": "function"
    },
    {
      "inputs": [
        {
          "internalType": "address",
          "name": "sender",
          "type": "address"
        },
        {
          "internalType": "address",
          "name": "recipient",
          "type": "address"
        },
        {
          "internalType": "uint256",
          "name": "amount",
          "type": "uint256"
        }
      ],
      "name": "transferFrom",
      "outputs": [
        {
          "internalType": "bool",
          "name": "",
          "type": "bool"
        }
      ],
      "stateMutability": "nonpayable",
      "type": "function"
    },
    {
      "inputs": [
        {
          "internalType": "address",
          "name": "newOwner",
          "type": "address"
        }
      ],
      "name": "transferOwnership",
      "outputs": [],
      "stateMutability": "nonpayable",
      "type": "function"
    },
    {
      "inputs": [
        {
          "internalType": "uint256",
          "name": "_pid",
          "type": "uint256"
        }
      ],
      "name": "getPoolInfo",
      "outputs": [
        {
          "internalType": "address",
          "name": "_poolAddress",
          "type": "address"
        },
        {
          "internalType": "address[]",
          "name": "_coins",
          "type": "address[]"
        },
        {
          "internalType": "uint256",
          "name": "_allocPoint",
          "type": "uint256"
        },
        {
          "internalType": "uint256",
          "name": "_accTokenPerShare",
          "type": "uint256"
        },
        {
          "internalType": "uint256",
          "name": "_shareRewardRate",
          "type": "uint256"
        },
        {
          "internalType": "uint256",
          "name": "_swapRewardRate",
          "type": "uint256"
        },
        {
          "internalType": "uint256",
          "name": "_totalVolAccPoints",
          "type": "uint256"
        },
        {
          "internalType": "uint256",
          "name": "_totalVolReward",
          "type": "uint256"
        },
        {
          "internalType": "uint256",
          "name": "_lastUpdateTime",
          "type": "uint256"
        },
        {
          "internalType": "uint256[]",
          "name": "arrData",
          "type": "uint256[]"
        }
      ],
      "stateMutability": "view",
      "type": "function"
    },
    {
      "inputs": [],
      "name": "getTokenAddress",
      "outputs": [
        {
          "internalType": "address",
          "name": "taddress",
          "type": "address"
        }
      ],
      "stateMutability": "view",
      "type": "function"
    },
    {
      "inputs": [
        {
          "internalType": "uint256",
          "name": "_pid",
          "type": "uint256"
        },
        {
          "internalType": "address",
          "name": "user",
          "type": "address"
        }
      ],
      "name": "getUserInfo",
      "outputs": [
        {
          "internalType": "uint256",
          "name": "_amount",
          "type": "uint256"
        },
        {
          "internalType": "uint256",
          "name": "_volume",
          "type": "uint256"
        },
        {
          "internalType": "uint256",
          "name": "_rewardDebt",
          "type": "uint256"
        },
        {
          "internalType": "uint256",
          "name": "_volReward",
          "type": "uint256"
        },
        {
          "internalType": "uint256",
          "name": "_farmingReward",
          "type": "uint256"
        }
      ],
      "stateMutability": "view",
      "type": "function"
    },
    {
      "inputs": [
        {
          "internalType": "uint256",
          "name": "_pid",
          "type": "uint256"
        }
      ],
      "name": "getPoolUsers",
      "outputs": [
        {
          "internalType": "address[]",
          "name": "_users",
          "type": "address[]"
        }
      ],
      "stateMutability": "view",
      "type": "function"
    },
    {
      "inputs": [],
      "name": "getPoolsLength",
      "outputs": [
        {
          "internalType": "uint256",
          "name": "l",
          "type": "uint256"
        }
      ],
      "stateMutability": "view",
      "type": "function"
    },
    {
      "inputs": [],
      "name": "getTotalAllocPoint",
      "outputs": [
        {
          "internalType": "uint256",
          "name": "r",
          "type": "uint256"
        }
      ],
      "stateMutability": "view",
      "type": "function"
    },
    {
      "inputs": [],
      "name": "isMigrationOpen",
      "outputs": [
        {
          "internalType": "bool",
          "name": "r",
          "type": "bool"
        }
      ],
      "stateMutability": "view",
      "type": "function"
    },
    {
      "inputs": [],
      "name": "getMigrateFrom",
      "outputs": [
        {
          "internalType": "address",
          "name": "_a",
          "type": "address"
        }
      ],
      "stateMutability": "view",
      "type": "function"
    },
    {
      "inputs": [
        {
          "internalType": "uint256",
          "name": "_pid",
          "type": "uint256"
        },
        {
          "internalType": "uint256",
          "name": "i",
          "type": "uint256"
        },
        {
          "internalType": "uint256",
          "name": "j",
          "type": "uint256"
        },
        {
          "internalType": "uint256",
          "name": "dx",
          "type": "uint256"
        },
        {
          "internalType": "uint256",
          "name": "min_dy",
          "type": "uint256"
        }
      ],
      "name": "exchange",
      "outputs": [],
      "stateMutability": "nonpayable",
      "type": "function"
    },
    {
      "inputs": [
        {
          "internalType": "uint256",
          "name": "_pid",
          "type": "uint256"
        }
      ],
      "name": "getPoolAddress",
      "outputs": [
        {
          "internalType": "address",
          "name": "_poolAddress",
          "type": "address"
        }
      ],
      "stateMutability": "view",
      "type": "function"
    },
    {
      "inputs": [
        {
          "internalType": "uint256",
          "name": "_pid",
          "type": "uint256"
        },
        {
          "internalType": "address",
          "name": "_user",
          "type": "address"
        }
      ],
      "name": "pendingReward",
      "outputs": [
        {
          "internalType": "uint256",
          "name": "",
          "type": "uint256"
        }
      ],
      "stateMutability": "view",
      "type": "function"
    },
    {
      "inputs": [],
      "name": "massUpdatePools",
      "outputs": [],
      "stateMutability": "nonpayable",
      "type": "function"
    },
    {
      "inputs": [
        {
          "internalType": "uint256",
          "name": "_pid",
          "type": "uint256"
        }
      ],
      "name": "updatePool",
      "outputs": [],
      "stateMutability": "nonpayable",
      "type": "function"
    },
    {
      "inputs": [
        {
          "internalType": "uint256",
          "name": "_pid",
          "type": "uint256"
        }
      ],
      "name": "updatePoolForExchange",
      "outputs": [],
      "stateMutability": "nonpayable",
      "type": "function"
    },
    {
      "inputs": [
        {
          "internalType": "uint256",
          "name": "_pid",
          "type": "uint256"
        },
        {
          "internalType": "uint256",
          "name": "_amount",
          "type": "uint256"
        }
      ],
      "name": "deposit",
      "outputs": [],
      "stateMutability": "nonpayable",
      "type": "function"
    },
    {
      "inputs": [
        {
          "internalType": "uint256",
          "name": "_pid",
          "type": "uint256"
        },
        {
          "internalType": "uint256",
          "name": "_amount",
          "type": "uint256"
        }
      ],
      "name": "withdraw",
      "outputs": [],
      "stateMutability": "nonpayable",
      "type": "function"
    },
    {
      "inputs": [
        {
          "internalType": "uint256",
          "name": "_pid",
          "type": "uint256"
        }
      ],
      "name": "emergencyWithdraw",
      "outputs": [],
      "stateMutability": "nonpayable",
      "type": "function"
    },
    {
      "inputs": [],
      "name": "openMigration",
      "outputs": [],
      "stateMutability": "nonpayable",
      "type": "function"
    },
    {
      "inputs": [],
      "name": "closeMigration",
      "outputs": [],
      "stateMutability": "nonpayable",
      "type": "function"
    },
    {
      "inputs": [
        {
          "internalType": "address",
          "name": "_poolAddress",
          "type": "address"
        },
        {
          "internalType": "address[]",
          "name": "_coins",
          "type": "address[]"
        },
        {
          "internalType": "uint256",
          "name": "_allocPoint",
          "type": "uint256"
        }
      ],
      "name": "addPool",
      "outputs": [],
      "stateMutability": "nonpayable",
      "type": "function"
    },
    {
      "inputs": [
        {
          "internalType": "uint256",
          "name": "_pid",
          "type": "uint256"
        },
        {
          "internalType": "uint256",
          "name": "shareRate",
          "type": "uint256"
        },
        {
          "internalType": "uint256",
          "name": "swapRate",
          "type": "uint256"
        }
      ],
      "name": "setPoolRewardRate",
      "outputs": [],
      "stateMutability": "nonpayable",
      "type": "function"
    },
    {
      "inputs": [
        {
          "internalType": "uint256",
          "name": "_pid",
          "type": "uint256"
        },
        {
          "internalType": "address[]",
          "name": "_coins",
          "type": "address[]"
        }
      ],
      "name": "setPoolCoins",
      "outputs": [],
      "stateMutability": "nonpayable",
      "type": "function"
    },
    {
      "inputs": [
        {
          "internalType": "uint256",
          "name": "_pid",
          "type": "uint256"
        },
        {
          "internalType": "uint256",
          "name": "_allocPoint",
          "type": "uint256"
        }
      ],
      "name": "setPoolAllocPoint",
      "outputs": [],
      "stateMutability": "nonpayable",
      "type": "function"
    },
    {
      "inputs": [
        {
          "internalType": "address",
          "name": "to",
          "type": "address"
        }
      ],
      "name": "transferMinterTo",
      "outputs": [],
      "stateMutability": "nonpayable",
      "type": "function"
    },
    {
      "inputs": [
        {
          "internalType": "address",
          "name": "nMinter",
          "type": "address"
        }
      ],
      "name": "approveTokenTo",
      "outputs": [],
      "stateMutability": "nonpayable",
      "type": "function"
    },
    {
      "inputs": [
        {
          "internalType": "address",
          "name": "_from",
          "type": "address"
        }
      ],
      "name": "migrate",
      "outputs": [],
      "stateMutability": "nonpayable",
      "type": "function"
    }
  ],
  "bytecode": "0x60806040526000600955600c805460ff191690553480156200002057600080fd5b50604051620047e4380380620047e4833981810160405260608110156200004657600080fd5b81019080805160405193929190846401000000008211156200006757600080fd5b9083019060208201858111156200007d57600080fd5b82516401000000008111828201881017156200009857600080fd5b82525081516020918201929091019080838360005b83811015620000c7578181015183820152602001620000ad565b50505050905090810190601f168015620000f55780820380516001836020036101000a031916815260200191505b50604052602001805160405193929190846401000000008211156200011957600080fd5b9083019060208201858111156200012f57600080fd5b82516401000000008111828201881017156200014a57600080fd5b82525081516020918201929091019080838360005b83811015620001795781810151838201526020016200015f565b50505050905090810190601f168015620001a75780820380516001836020036101000a031916815260200191505b5060405260209081015185519093508592508491620001cc91600391850190620003ab565b508051620001e2906004906020840190620003ab565b50506005805460ff19166012179055506000620002076001600160e01b036200028e16565b60058054610100600160a81b0319166101006001600160a01b0384169081029190911790915560405191925090600090600080516020620047c4833981519152908290a350600160065562000265336001600160e01b036200029316565b600a80546001600160a01b0319166001600160a01b0392909216919091179055506200044d9050565b335b90565b620002a66001600160e01b036200028e16565b60055461010090046001600160a01b039081169116146200030e576040805162461bcd60e51b815260206004820181905260248201527f4f776e61626c653a2063616c6c6572206973206e6f7420746865206f776e6572604482015290519081900360640190fd5b6001600160a01b038116620003555760405162461bcd60e51b81526004018080602001828103825260268152602001806200479e6026913960400191505060405180910390fd5b6005546040516001600160a01b038084169261010090041690600080516020620047c483398151915290600090a3600580546001600160a01b0390921661010002610100600160a81b0319909216919091179055565b828054600181600116156101000203166002900490600052602060002090601f016020900481019282601f10620003ee57805160ff19168380011785556200041e565b828001600101855582156200041e579182015b828111156200041e57825182559160200191906001019062000401565b506200042c92915062000430565b5090565b6200029091905b808211156200042c576000815560010162000437565b614341806200045d6000396000f3fe608060405234801561001057600080fd5b50600436106102475760003560e01c80638dec81fa1161013b578063ce5494bb116100b8578063dd62ed3e1161007c578063dd62ed3e146108c7578063df689200146108f5578063e2bbb158146108fd578063e8fe8ab114610920578063f2fde38b1461095557610247565b8063ce5494bb14610830578063ce883cdb14610856578063d5fdcb3c1461085e578063d8291e751461087b578063dc628aa4146108a457610247565b8063a457c2d7116100ff578063a457c2d714610735578063a9059cbb14610761578063b03d67fe1461078d578063b367959014610795578063c93eca34146107bb57610247565b80638dec81fa146106735780638f9f31fe146106f157806395d89b41146106f957806398969e82146107015780639b3007da1461072d57610247565b80633a58b91a116101c957806360cb38141161018d57806360cb38141461060f578063630b5ba11461063557806370a082311461063d578063715018a6146106635780638da5cb5b1461066b57610247565b80633a58b91a1461053b578063441a3e701461054357806351eb05a6146105685780635237f731146105855780635312ea8e146105f257610247565b806318160ddd1161021057806318160ddd146103a157806323b872dd146103bb5780632f380b35146103f1578063313ce567146104f1578063395093511461050f57610247565b8062a5ae211461024c57806306fdde0314610285578063095ea7b3146103025780631069f3b51461034257806310fe9ae814610399575b600080fd5b6102696004803603602081101561026257600080fd5b503561097b565b604080516001600160a01b039092168252519081900360200190f35b61028d6109f1565b6040805160208082528351818301528351919283929083019185019080838360005b838110156102c75781810151838201526020016102af565b50505050905090810190601f1680156102f45780820380516001836020036101000a031916815260200191505b509250505060405180910390f35b61032e6004803603604081101561031857600080fd5b506001600160a01b038135169060200135610a88565b604080519115158252519081900360200190f35b61036e6004803603604081101561035857600080fd5b50803590602001356001600160a01b0316610aa6565b6040805195865260208601949094528484019290925260608401526080830152519081900360a00190f35b610269610aeb565b6103a9610afa565b60408051918252519081900360200190f35b61032e600480360360608110156103d157600080fd5b506001600160a01b03813581169160208101359091169060400135610b00565b61040e6004803603602081101561040757600080fd5b5035610b8d565b604051808b6001600160a01b03166001600160a01b03168152602001806020018a81526020018981526020018881526020018781526020018681526020018581526020018481526020018060200183810383528c818151815260200191508051906020019060200280838360005b8381101561049457818101518382015260200161047c565b50505050905001838103825284818151815260200191508051906020019060200280838360005b838110156104d35781810151838201526020016104bb565b505050509050019c5050505050505050505050505060405180910390f35b6104f9610ee9565b6040805160ff9092168252519081900360200190f35b61032e6004803603604081101561052557600080fd5b506001600160a01b038135169060200135610ef2565b6103a9610f46565b6105666004803603604081101561055957600080fd5b5080359060200135610f4c565b005b6105666004803603602081101561057e57600080fd5b503561129d565b6105a26004803603602081101561059b57600080fd5b50356115ac565b60408051602080825283518183015283519192839290830191858101910280838360005b838110156105de5781810151838201526020016105c6565b505050509050019250505060405180910390f35b6105666004803603602081101561060857600080fd5b5035611618565b6105666004803603602081101561062557600080fd5b50356001600160a01b03166116fa565b610566611817565b6103a96004803603602081101561065357600080fd5b50356001600160a01b0316611880565b61056661189b565b610269611948565b6105666004803603606081101561068957600080fd5b6001600160a01b038235169190810190604081016020820135600160201b8111156106b357600080fd5b8201836020820111156106c557600080fd5b803590602001918460208302840111600160201b831117156106e657600080fd5b91935091503561195c565b61032e611b01565b61028d611b0a565b6103a96004803603604081101561071757600080fd5b50803590602001356001600160a01b0316611b6b565b610566611d6e565b61032e6004803603604081101561074b57600080fd5b506001600160a01b038135169060200135611dda565b61032e6004803603604081101561077757600080fd5b506001600160a01b038135169060200135611e48565b610566611e5c565b610566600480360360208110156107ab57600080fd5b50356001600160a01b0316611ec5565b610566600480360360408110156107d157600080fd5b81359190810190604081016020820135600160201b8111156107f257600080fd5b82018360208201111561080457600080fd5b803590602001918460208302840111600160201b8311171561082557600080fd5b509092509050612072565b6105666004803603602081101561084657600080fd5b50356001600160a01b03166120a5565b6103a961236c565b6105666004803603602081101561087457600080fd5b5035612372565b6105666004803603606081101561089157600080fd5b50803590602081013590604001356125ba565b610566600480360360408110156108ba57600080fd5b5080359060200135612671565b6103a9600480360360408110156108dd57600080fd5b506001600160a01b038135811691602001351661273e565b610269612769565b6105666004803603604081101561091357600080fd5b508035906020013561277d565b610566600480360360a081101561093657600080fd5b5080359060208101359060408101359060608101359060800135612ad7565b6105666004803603602081101561096b57600080fd5b50356001600160a01b0316613295565b600c5460009060ff16156109c4576040805162461bcd60e51b81526020600482015260146024820152600080516020614180833981519152604482015290519081900360640190fd5b600782815481106109d157fe5b60009182526020909120600990910201546001600160a01b031692915050565b60038054604080516020601f6002600019610100600188161502019095169490940493840181900481028201810190925282815260609390929091830182828015610a7d5780601f10610a5257610100808354040283529160200191610a7d565b820191906000526020600020905b815481529060010190602001808311610a6057829003601f168201915b505050505090505b90565b6000610a9c610a9561339e565b84846133a2565b5060015b92915050565b6000918252600b602090815260408084206001600160a01b03939093168452919052902080546001820154600283015460038401546004909401549294919390929091565b600a546001600160a01b031690565b60025490565b6000610b0d84848461348e565b610b8384610b1961339e565b610b7e85604051806060016040528060288152602001614210602891396001600160a01b038a16600090815260016020526040812090610b5761339e565b6001600160a01b03168152602081019190915260400160002054919063ffffffff6135f516565b6133a2565b5060019392505050565b6000606081808080808080876007604051908082528060200260200182016040528015610bc4578160200160208202803683370190505b50905060078b81548110610bd457fe5b6000918252602090912060099091020154600780546001600160a01b039092169b50908c908110610c0157fe5b9060005260206000209060090201600101805480602002602001604051908101604052809291908181526020018280548015610c6657602002820191906000526020600020905b81546001600160a01b03168152600190910190602001808311610c48575b5050505050985060078b81548110610c7a57fe5b906000526020600020906009020160020154975060078b81548110610c9b57fe5b90600052602060002090600902016002015481600081518110610cba57fe5b60200260200101818152505060078b81548110610cd357fe5b906000526020600020906009020160030154965060078b81548110610cf457fe5b90600052602060002090600902016003015481600181518110610d1357fe5b60200260200101818152505060078b81548110610d2c57fe5b906000526020600020906009020160040154955060078b81548110610d4d57fe5b90600052602060002090600902016004015481600281518110610d6c57fe5b60200260200101818152505060078b81548110610d8557fe5b906000526020600020906009020160050154945060078b81548110610da657fe5b90600052602060002090600902016005015481600381518110610dc557fe5b60200260200101818152505060078b81548110610dde57fe5b906000526020600020906009020160060154935060078b81548110610dff57fe5b90600052602060002090600902016006015481600481518110610e1e57fe5b60200260200101818152505060078b81548110610e3757fe5b906000526020600020906009020160070154925060078b81548110610e5857fe5b90600052602060002090600902016007015481600581518110610e7757fe5b60200260200101818152505060078b81548110610e9057fe5b906000526020600020906009020160080154915060078b81548110610eb157fe5b90600052602060002090600902016008015481600681518110610ed057fe5b6020026020010181815250509193959799509193959799565b60055460ff1690565b6000610a9c610eff61339e565b84610b7e8560016000610f1061339e565b6001600160a01b03908116825260208083019390935260409182016000908120918c16815292529020549063ffffffff61368c16565b60095490565b600c5460ff1615610f92576040805162461bcd60e51b81526020600482015260146024820152600080516020614180833981519152604482015290519081900360640190fd5b6000828152600b6020908152604080832033845290915290208054821115610ff6576040805162461bcd60e51b81526020600482015260126024820152711dda5d1a191c985dce881b9bdd0819dbdbd960721b604482015290519081900360640190fd5b610fff8361129d565b60006007848154811061100e57fe5b906000526020600020906009020190506000611067836002015461105b670de0b6b3a764000061104f866003015488600001546136ed90919063ffffffff16565b9063ffffffff61374616565b9063ffffffff61378816565b90508015611206576000611128670de0b6b3a764000061104f8560040154600a60009054906101000a90046001600160a01b03166001600160a01b03166370a08231306040518263ffffffff1660e01b815260040180826001600160a01b03166001600160a01b0316815260200191505060206040518083038186803b1580156110f057600080fd5b505afa158015611104573d6000803e3d6000fd5b505050506040513d602081101561111a57600080fd5b50519063ffffffff6136ed16565b905081811061119d576000868152600b6020908152604080832033845290915290206004015461115e908363ffffffff61368c16565b6000878152600b6020908152604080832033808552925290912060040191909155600a54611198916001600160a01b0390911690846137ca565b611204565b6000868152600b602090815260408083203384529091529020600401546111ca908263ffffffff61368c16565b6000878152600b6020908152604080832033808552925290912060040191909155600a54611204916001600160a01b0390911690836137ca565b505b831561123657825461121e908563ffffffff61378816565b83558154611236906001600160a01b031633866137ca565b6003820154835461125a91670de0b6b3a76400009161104f9163ffffffff6136ed16565b6002840155604080518581529051869133917ff279e6a1f5e320cca91135676d9cb6e44ca8a08c0b88342bcdb1144f6511b5689181900360200190a35050505050565b600c5460ff16156112e3576040805162461bcd60e51b81526020600482015260146024820152600080516020614180833981519152604482015290519081900360640190fd5b6000600782815481106112f257fe5b906000526020600020906009020190508060080154421161131357506115a9565b8054604080516370a0823160e01b815230600482015290516000926001600160a01b0316916370a08231916024808301926020929190829003018186803b15801561135d57600080fd5b505afa158015611371573d6000803e3d6000fd5b505050506040513d602081101561138757600080fd5b505190508061139d5750426008909101556115a9565b6000611499600a60009054906101000a90046001600160a01b03166001600160a01b03166318160ddd6040518163ffffffff1660e01b815260040160206040518083038186803b1580156113f057600080fd5b505afa158015611404573d6000803e3d6000fd5b505050506040513d602081101561141a57600080fd5b5051600a5460408051633f6615ab60e11b815290516001600160a01b0390921691637ecc2b5691600480820192602092909190829003018186803b15801561146157600080fd5b505afa158015611475573d6000803e3d6000fd5b505050506040513d602081101561148b57600080fd5b50519063ffffffff61378816565b905060006114ba60095461104f8660020154856136ed90919063ffffffff16565b905060006114e1670de0b6b3a764000061104f8760040154856136ed90919063ffffffff16565b600a54604080516340c10f1960e01b81523060048201526024810186905290519293506001600160a01b03909116916340c10f19916044808201926020929091908290030181600087803b15801561153857600080fd5b505af115801561154c573d6000803e3d6000fd5b505050506040513d602081101561156257600080fd5b5061159590506115848561104f84670de0b6b3a764000063ffffffff6136ed16565b60038701549063ffffffff61368c16565b600386015550504260089093019290925550505b50565b60008181526008602090815260409182902080548351818402810184019094528084526060939283018282801561160c57602002820191906000526020600020905b81546001600160a01b031681526001909101906020018083116115ee575b50505050509050919050565b600c5460ff161561165e576040805162461bcd60e51b81526020600482015260146024820152600080516020614180833981519152604482015290519081900360640190fd5b60006007828154811061166d57fe5b60009182526020808320858452600b8252604080852033808752935284208054858255600282019590955560099093020180549094509192916116bd916001600160a01b039190911690836137ca565b604080518281529051859133917fbb757047c2b5f3974fe26b7c10f732e7bce710b0952a71082702781e62ae05959181900360200190a350505050565b61170261339e565b60055461010090046001600160a01b03908116911614611757576040805162461bcd60e51b81526020600482018190526024820152600080516020614259833981519152604482015290519081900360640190fd5b600c5460ff166117ae576040805162461bcd60e51b815260206004820152601f60248201527f6f6e20616c6c6f77207768656e206d6967726174696f6e206973206f70656e00604482015290519081900360640190fd5b600a5460408051631832ce0560e21b81526001600160a01b038481166004830152915191909216916360cb381491602480830192600092919082900301818387803b1580156117fc57600080fd5b505af1158015611810573d6000803e3d6000fd5b5050505050565b600c5460ff161561185d576040805162461bcd60e51b81526020600482015260146024820152600080516020614180833981519152604482015290519081900360640190fd5b60075460005b8181101561187c576118748161129d565b600101611863565b5050565b6001600160a01b031660009081526020819052604090205490565b6118a361339e565b60055461010090046001600160a01b039081169116146118f8576040805162461bcd60e51b81526020600482018190526024820152600080516020614259833981519152604482015290519081900360640190fd5b60055460405160009161010090046001600160a01b0316907f8be0079c531659141344cd1fd0a4f28419497f9722a3daafe3b4186f6b6457e0908390a360058054610100600160a81b0319169055565b60055461010090046001600160a01b031690565b61196461339e565b60055461010090046001600160a01b039081169116146119b9576040805162461bcd60e51b81526020600482018190526024820152600080516020614259833981519152604482015290519081900360640190fd5b6009546119cc908263ffffffff61368c16565b6009819055506007604051806101200160405280866001600160a01b0316815260200185858080602002602001604051908101604052809392919081815260200183836020028082843760009201829052509385525050506020808301869052604083018290526706f05b59d3b2000060608401819052608084015260a0830182905260c083018290524260e09093019290925283546001808201865594825290829020835160099092020180546001600160a01b0319166001600160a01b0390921691909117815582820151805193949193611ab19392850192919091019061405b565b5060408201518160020155606082015181600301556080820151816004015560a0820151816005015560c0820151816006015560e082015181600701556101008201518160080155505050505050565b600c5460ff1690565b60048054604080516020601f6002600019610100600188161502019095169490940493840181900481028201810190925282815260609390929091830182828015610a7d5780601f10610a5257610100808354040283529160200191610a7d565b600c5460009060ff1615611bb4576040805162461bcd60e51b81526020600482015260146024820152600080516020614180833981519152604482015290519081900360640190fd5b600060078481548110611bc357fe5b60009182526020808320878452600b825260408085206001600160a01b0389811687529084528186206009959095029092016003810154815483516370a0823160e01b815230600482015293519298509596909590949316926370a082319260248082019391829003018186803b158015611c3d57600080fd5b505afa158015611c51573d6000803e3d6000fd5b505050506040513d6020811015611c6757600080fd5b505190508015611d38576000611cc4600a60009054906101000a90046001600160a01b03166001600160a01b03166318160ddd6040518163ffffffff1660e01b815260040160206040518083038186803b1580156113f057600080fd5b90506000611d0560095461104f8860020154611cf9670de0b6b3a764000061104f8c60040154896136ed90919063ffffffff16565b9063ffffffff6136ed16565b9050611d33611d268461104f84670de0b6b3a764000063ffffffff6136ed16565b859063ffffffff61368c16565b935050505b611d63836002015461105b670de0b6b3a764000061104f8688600001546136ed90919063ffffffff16565b979650505050505050565b611d7661339e565b60055461010090046001600160a01b03908116911614611dcb576040805162461bcd60e51b81526020600482018190526024820152600080516020614259833981519152604482015290519081900360640190fd5b600c805460ff19166001179055565b6000610a9c611de761339e565b84610b7e856040518060600160405280602581526020016141eb6025913960016000611e1161339e565b6001600160a01b03908116825260208083019390935260409182016000908120918d1681529252902054919063ffffffff6135f516565b6000610a9c611e5561339e565b848461348e565b611e6461339e565b60055461010090046001600160a01b03908116911614611eb9576040805162461bcd60e51b81526020600482018190526024820152600080516020614259833981519152604482015290519081900360640190fd5b600c805460ff19169055565b611ecd61339e565b60055461010090046001600160a01b03908116911614611f22576040805162461bcd60e51b81526020600482018190526024820152600080516020614259833981519152604482015290519081900360640190fd5b600a546040805163f366751760e01b815290516001600160a01b0392831692841691839163f366751791600480820192602092909190829003018186803b158015611f6c57600080fd5b505afa158015611f80573d6000803e3d6000fd5b505050506040513d6020811015611f9657600080fd5b50516001600160a01b031614611fdd5760405162461bcd60e51b81526004018080602001828103825260288152602001806142e46028913960400191505060405180910390fd5b604080516370a0823160e01b815230600482015290516000916001600160a01b038416916370a0823191602480820192602092909190829003018186803b15801561202757600080fd5b505afa15801561203b573d6000803e3d6000fd5b505050506040513d602081101561205157600080fd5b5051600a5490915061206d906001600160a01b0316848361392d565b505050565b81816007858154811061208157fe5b9060005260206000209060090201600101919061209f9291906140c0565b50505050565b6120ad61339e565b60055461010090046001600160a01b03908116911614612102576040805162461bcd60e51b81526020600482018190526024820152600080516020614259833981519152604482015290519081900360640190fd5b600c805460ff19166001179055604080516347cf98ff60e11b8152905182916001600160a01b03831691638f9f31fe91600480820192602092909190829003018186803b15801561215257600080fd5b505afa158015612166573d6000803e3d6000fd5b505050506040513d602081101561217c57600080fd5b50516121cf576040805162461bcd60e51b815260206004820152601a60248201527f66726f6d2773206d6967726174696f6e206e6f74206f70656e2e000000000000604482015290519081900360640190fd5b600c5461010090046001600160a01b031615612229576040805162461bcd60e51b815260206004820152601460248201527336b4b3b930ba34b7b71037b7363c9037b731b29760611b604482015290519081900360640190fd5b61223281613a90565b806001600160a01b03166310fe9ae86040518163ffffffff1660e01b815260040160206040518083038186803b15801561226b57600080fd5b505afa15801561227f573d6000803e3d6000fd5b505050506040513d602081101561229557600080fd5b5051600a80546001600160a01b0319166001600160a01b039283161790819055604080516370a0823160e01b81528584166004820152905160009392909216916370a0823191602480820192602092909190829003018186803b1580156122fb57600080fd5b505afa15801561230f573d6000803e3d6000fd5b505050506040513d602081101561232557600080fd5b5051600a54909150612342906001600160a01b0316843084613e99565b5050600c80546001600160a01b0390921661010002610100600160a81b0319909216919091179055565b60075490565b600c5460ff16156123b8576040805162461bcd60e51b81526020600482015260146024820152600080516020614180833981519152604482015290519081900360640190fd5b6000600782815481106123c757fe5b90600052602060002090600902019050806008015442116123e857506115a9565b600061243b600a60009054906101000a90046001600160a01b03166001600160a01b03166318160ddd6040518163ffffffff1660e01b815260040160206040518083038186803b1580156113f057600080fd5b9050600061245c60095461104f8560020154856136ed90919063ffffffff16565b600a54604080516340c10f1960e01b81523060048201526024810184905290519293506001600160a01b03909116916340c10f19916044808201926020929091908290030181600087803b1580156124b357600080fd5b505af11580156124c7573d6000803e3d6000fd5b505050506040513d60208110156124dd57600080fd5b50508254604080516370a0823160e01b815230600482015290516000926001600160a01b0316916370a08231916024808301926020929190829003018186803b15801561252957600080fd5b505afa15801561253d573d6000803e3d6000fd5b505050506040513d602081101561255357600080fd5b5051905080156125aa576000612582670de0b6b3a764000061104f8760040154866136ed90919063ffffffff16565b90506125a36115848361104f84670de0b6b3a764000063ffffffff6136ed16565b6003860155505b4284600801819055505050505050565b670de0b6b3a76400006125d3838363ffffffff61368c16565b1115612626576040805162461bcd60e51b815260206004820152601860248201527f73756d2072617465206c6f776572207468656e20313030250000000000000000604482015290519081900360640190fd5b816007848154811061263457fe5b906000526020600020906009020160040181905550806007848154811061265757fe5b906000526020600020906009020160050181905550505050565b61267961339e565b60055461010090046001600160a01b039081169116146126ce576040805162461bcd60e51b81526020600482018190526024820152600080516020614259833981519152604482015290519081900360640190fd5b61271181612705600785815481106126e257fe5b90600052602060002090600902016002015460095461378890919063ffffffff16565b9063ffffffff61368c16565b600981905550806007838154811061272557fe5b9060005260206000209060090201600201819055505050565b6001600160a01b03918216600090815260016020908152604080832093909416825291909152205490565b600c5461010090046001600160a01b031690565b600c5460ff16156127c3576040805162461bcd60e51b81526020600482015260146024820152600080516020614180833981519152604482015290519081900360640190fd5b6000828152600b60209081526040808320338452909152812090805b60008581526008602052604090205481101561283e57600085815260086020526040902080543391908390811061281257fe5b6000918252602090912001546001600160a01b03161415612836576001915061283e565b6001016127df565b50806128735760008481526008602090815260408220805460018101825590835291200180546001600160a01b031916331790555b61287c8461129d565b60006007858154811061288b57fe5b600091825260209091208454600990920201915015612a3e5760006128d5846002015461105b670de0b6b3a764000061104f866003015489600001546136ed90919063ffffffff16565b90508015612a3c57600061295e670de0b6b3a764000061104f8560040154600a60009054906101000a90046001600160a01b03166001600160a01b03166370a08231306040518263ffffffff1660e01b815260040180826001600160a01b03166001600160a01b0316815260200191505060206040518083038186803b1580156110f057600080fd5b90508181106129d3576000878152600b60209081526040808320338452909152902060040154612994908363ffffffff61368c16565b6000888152600b6020908152604080832033808552925290912060040191909155600a546129ce916001600160a01b0390911690846137ca565b612a3a565b6000878152600b60209081526040808320338452909152902060040154612a00908263ffffffff61368c16565b6000888152600b6020908152604080832033808552925290912060040191909155600a54612a3a916001600160a01b0390911690836137ca565b505b505b8315612a70578054612a5b906001600160a01b0316333087613e99565b8254612a6d908563ffffffff61368c16565b83555b60038101548354612a9491670de0b6b3a76400009161104f9163ffffffff6136ed16565b6002840155604080518581529051869133917f90890809c654f11d6e72a28fa60149770a0d11ec6c92319d6ceb2bb0a4ea1a159181900360200190a35050505050565b60026006541415612b2f576040805162461bcd60e51b815260206004820152601f60248201527f5265656e7472616e637947756172643a207265656e7472616e742063616c6c00604482015290519081900360640190fd5b6002600655600c5460ff1615612b7a576040805162461bcd60e51b81526020600482015260146024820152600080516020614180833981519152604482015290519081900360640190fd5b60006001600160a01b031660078681548110612b9257fe5b60009182526020909120600990910201546001600160a01b03161415612bff576040805162461bcd60e51b815260206004820152601a60248201527f616464726573732830292063616e2774206265206120706f6f6c000000000000604482015290519081900360640190fd5b6000805b600087815260086020526040902054811015612c62576000878152600860205260409020805433919083908110612c3657fe5b6000918252602090912001546001600160a01b03161415612c5a5760019150612c62565b600101612c03565b5080612c975760008681526008602090815260408220805460018101825590835291200180546001600160a01b031916331790555b612ca086612372565b612ce960078781548110612cb057fe5b90600052602060002090600902016001018681548110612ccc57fe5b6000918252602090912001546001600160a01b0316333086613e99565b612d5b60078781548110612cf957fe5b90600052602060002090600902016001018681548110612d1557fe5b600091825260209091200154600780546001600160a01b039092169189908110612d3b57fe5b60009182526020909120600990910201546001600160a01b03168561392d565b60078681548110612d6857fe5b6000918252602082206009909102015460408051630b68372160e31b81526004810189905260248101889052604481018790526064810186905290516001600160a01b0390921692635b41b9089260848084019382900301818387803b158015612dd157600080fd5b505af1158015612de5573d6000803e3d6000fd5b50505050600060078781548110612df857fe5b90600052602060002090600902016001018581548110612e1457fe5b60009182526020918290200154604080516370a0823160e01b815230600482015290516001600160a01b03909216926370a0823192602480840193829003018186803b158015612e6357600080fd5b505afa158015612e77573d6000803e3d6000fd5b505050506040513d6020811015612e8d57600080fd5b5051905080612ed1576040805162461bcd60e51b815260206004820152600b60248201526a1b9bc818dbda5b881bdd5d60aa1b604482015290519081900360640190fd5b612f11612ee88561104f848063ffffffff6136ed16565b6000898152600b602090815260408083203384529091529020600101549063ffffffff61368c16565b6000888152600b60209081526040808320338452909152812060010191909155612f458561104f848063ffffffff6136ed16565b11612f90576040805162461bcd60e51b81526020600482015260166024820152750616363756d756c61746520706f696e747320697320360541b604482015290519081900360640190fd5b600061300d670de0b6b3a764000061104f60078b81548110612fae57fe5b600091825260209182902060056009909202010154600a54604080516370a0823160e01b8152306004820152905192936001600160a01b03909216926370a0823192602480840193919291829003018186803b1580156110f057600080fd5b9050600061309361304d60078b8154811061302457fe5b9060005260206000209060090201600601546127058961104f88896136ed90919063ffffffff16565b61104f6130628982888063ffffffff6136ed16565b611cf98660078f8154811061307357fe5b90600052602060002090600902016007015461368c90919063ffffffff16565b90508181111561313c576000898152600b602090815260408083203384529091529020600301546130ca908363ffffffff61368c16565b60008a8152600b6020908152604080832033808552925290912060030191909155600a54613104916001600160a01b0390911690846137ca565b6131158260078b8154811061307357fe5b60078a8154811061312257fe5b9060005260206000209060090201600701819055506131d7565b6000898152600b60209081526040808320338452909152902060030154613169908263ffffffff61368c16565b60008a8152600b6020908152604080832033808552925290912060030191909155600a546131a3916001600160a01b0390911690836137ca565b6131b48160078b8154811061307357fe5b60078a815481106131c157fe5b9060005260206000209060090201600701819055505b61321b6131ee8761104f868063ffffffff6136ed16565b60078b815481106131fb57fe5b90600052602060002090600902016006015461368c90919063ffffffff16565b60078a8154811061322857fe5b90600052602060002090600902016006018190555061328560078a8154811061324d57fe5b9060005260206000209060090201600101888154811061326957fe5b6000918252602090912001546001600160a01b031633856137ca565b5050600160065550505050505050565b61329d61339e565b60055461010090046001600160a01b039081169116146132f2576040805162461bcd60e51b81526020600482018190526024820152600080516020614259833981519152604482015290519081900360640190fd5b6001600160a01b0381166133375760405162461bcd60e51b815260040180806020018281038252602681526020018061415a6026913960400191505060405180910390fd5b6005546040516001600160a01b0380841692610100900416907f8be0079c531659141344cd1fd0a4f28419497f9722a3daafe3b4186f6b6457e090600090a3600580546001600160a01b0390921661010002610100600160a81b0319909216919091179055565b3390565b6001600160a01b0383166133e75760405162461bcd60e51b815260040180806020018281038252602481526020018061429c6024913960400191505060405180910390fd5b6001600160a01b03821661342c5760405162461bcd60e51b81526004018080602001828103825260228152602001806141386022913960400191505060405180910390fd5b6001600160a01b03808416600081815260016020908152604080832094871680845294825291829020859055815185815291517f8c5be1e5ebec7d5bd14f71427d1e84f3dd0314c0f7b2291e5b200ac8c7c3b9259281900390910190a3505050565b6001600160a01b0383166134d35760405162461bcd60e51b81526004018080602001828103825260258152602001806141a06025913960400191505060405180910390fd5b6001600160a01b0382166135185760405162461bcd60e51b81526004018080602001828103825260238152602001806142796023913960400191505060405180910390fd5b61352383838361206d565b613566816040518060600160405280602681526020016141c5602691396001600160a01b038616600090815260208190526040902054919063ffffffff6135f516565b6001600160a01b03808516600090815260208190526040808220939093559084168152205461359b908263ffffffff61368c16565b6001600160a01b038084166000818152602081815260409182902094909455805185815290519193928716927fddf252ad1be2c89b69c2b068fc378daa952ba7f163c4a11628f55a4df523b3ef92918290030190a3505050565b600081848411156136845760405162461bcd60e51b81526004018080602001828103825283818151815260200191508051906020019080838360005b83811015613649578181015183820152602001613631565b50505050905090810190601f1680156136765780820380516001836020036101000a031916815260200191505b509250505060405180910390fd5b505050900390565b6000828201838110156136e6576040805162461bcd60e51b815260206004820152601b60248201527f536166654d6174683a206164646974696f6e206f766572666c6f770000000000604482015290519081900360640190fd5b9392505050565b6000826136fc57506000610aa0565b8282028284828161370957fe5b04146136e65760405162461bcd60e51b81526004018080602001828103825260218152602001806142386021913960400191505060405180910390fd5b60006136e683836040518060400160405280601a81526020017f536166654d6174683a206469766973696f6e206279207a65726f000000000000815250613ff6565b60006136e683836040518060400160405280601e81526020017f536166654d6174683a207375627472616374696f6e206f766572666c6f7700008152506135f5565b604080516001600160a01b038481166024830152604480830185905283518084039091018152606490920183526020820180516001600160e01b031663a9059cbb60e01b178152925182516000946060949389169392918291908083835b602083106138475780518252601f199092019160209182019101613828565b6001836020036101000a0380198251168184511680821785525050505050509050019150506000604051808303816000865af19150503d80600081146138a9576040519150601f19603f3d011682016040523d82523d6000602084013e6138ae565b606091505b50915091508180156138dc5750805115806138dc57508080602001905160208110156138d957600080fd5b50515b611810576040805162461bcd60e51b815260206004820152601f60248201527f5472616e7366657248656c7065723a205452414e534645525f4641494c454400604482015290519081900360640190fd5b604080516001600160a01b038481166024830152604480830185905283518084039091018152606490920183526020820180516001600160e01b031663095ea7b360e01b178152925182516000946060949389169392918291908083835b602083106139aa5780518252601f19909201916020918201910161398b565b6001836020036101000a0380198251168184511680821785525050505050509050019150506000604051808303816000865af19150503d8060008114613a0c576040519150601f19603f3d011682016040523d82523d6000602084013e613a11565b606091505b5091509150818015613a3f575080511580613a3f5750808060200190516020811015613a3c57600080fd5b50515b611810576040805162461bcd60e51b815260206004820152601e60248201527f5472616e7366657248656c7065723a20415050524f56455f4641494c45440000604482015290519081900360640190fd5b6000606080825b846001600160a01b031663ce883cdb6040518163ffffffff1660e01b815260040160206040518083038186803b158015613ad057600080fd5b505afa158015613ae4573d6000803e3d6000fd5b505050506040513d6020811015613afa57600080fd5b505181101561181057846001600160a01b0316632f380b35826040518263ffffffff1660e01b81526004018082815260200191505060006040518083038186803b158015613b4757600080fd5b505afa158015613b5b573d6000803e3d6000fd5b505050506040513d6000823e601f3d908101601f19168201604052610140811015613b8557600080fd5b815160208301805160405192949293830192919084600160201b821115613bab57600080fd5b908301906020820185811115613bc057600080fd5b82518660208202830111600160201b82111715613bdc57600080fd5b82525081516020918201928201910280838360005b83811015613c09578181015183820152602001613bf1565b505050509190910160408181526020840151908401516060850151608086015160a087015160c088015160e08901516101009099018051969b959a94999398509196909592949093909290919084600160201b821115613c6857600080fd5b908301906020820185811115613c7d57600080fd5b82518660208202830111600160201b82111715613c9957600080fd5b82525081516020918201928201910280838360005b83811015613cc6578181015183820152602001613cae565b5050505091909101604052505082519b9f50999d50909b50613d13998c99506000985015159650613cfa9550505050505057fe5b602002602001015160095461368c90919063ffffffff16565b6009819055506007604051806101200160405280866001600160a01b0316815260200185815260200184600081518110613d4957fe5b6020026020010151815260200184600181518110613d6357fe5b6020026020010151815260200184600281518110613d7d57fe5b6020026020010151815260200184600381518110613d9757fe5b6020026020010151815260200184600481518110613db157fe5b6020026020010151815260200184600581518110613dcb57fe5b6020026020010151815260200184600681518110613de557fe5b602090810291909101810151909152825460018082018555600094855293829020835160099092020180546001600160a01b0319166001600160a01b0390921691909117815582820151805193949193613e479392850192919091019061405b565b5060408201516002820155606082015160038201556080820151600482015560a0820151600582015560c0820151600682015560e0820151600782015561010090910151600890910155600101613a97565b604080516001600160a01b0385811660248301528481166044830152606480830185905283518084039091018152608490920183526020820180516001600160e01b03166323b872dd60e01b17815292518251600094606094938a169392918291908083835b60208310613f1e5780518252601f199092019160209182019101613eff565b6001836020036101000a0380198251168184511680821785525050505050509050019150506000604051808303816000865af19150503d8060008114613f80576040519150601f19603f3d011682016040523d82523d6000602084013e613f85565b606091505b5091509150818015613fb3575080511580613fb35750808060200190516020811015613fb057600080fd5b50515b613fee5760405162461bcd60e51b81526004018080602001828103825260248152602001806142c06024913960400191505060405180910390fd5b505050505050565b600081836140455760405162461bcd60e51b8152602060048201818152835160248401528351909283926044909101919085019080838360008315613649578181015183820152602001613631565b50600083858161405157fe5b0495945050505050565b8280548282559060005260206000209081019282156140b0579160200282015b828111156140b057825182546001600160a01b0319166001600160a01b0390911617825560209092019160019091019061407b565b506140bc929150614113565b5090565b8280548282559060005260206000209081019282156140b0579160200282015b828111156140b05781546001600160a01b0319166001600160a01b038435161782556020909201916001909101906140e0565b610a8591905b808211156140bc5780546001600160a01b031916815560010161411956fe48524332303a20617070726f766520746f20746865207a65726f20616464726573734f776e61626c653a206e6577206f776e657220697320746865207a65726f206164647265737361206d6967726174696f6e206973206f70656e2e00000000000000000000000048524332303a207472616e736665722066726f6d20746865207a65726f206164647265737348524332303a207472616e7366657220616d6f756e7420657863656564732062616c616e636548524332303a2064656372656173656420616c6c6f77616e63652062656c6f77207a65726f48524332303a207472616e7366657220616d6f756e74206578636565647320616c6c6f77616e6365536166654d6174683a206d756c7469706c69636174696f6e206f766572666c6f774f776e61626c653a2063616c6c6572206973206e6f7420746865206f776e657248524332303a207472616e7366657220746f20746865207a65726f206164647265737348524332303a20617070726f76652066726f6d20746865207a65726f20616464726573735472616e7366657248656c7065723a205452414e534645525f46524f4d5f4641494c45446f6e6c7920616c6c6f7720746f20617070726f766520746f6b656e20746f2061206d696e7465722ea2646970667358221220a866b5ef39d68a13ae109b73bcc6bf0ddaf1d047a8f0e4ac9f1c3c33dacb94eb64736f6c634300060600334f776e61626c653a206e6577206f776e657220697320746865207a65726f20616464726573738be0079c531659141344cd1fd0a4f28419497f9722a3daafe3b4186f6b6457e0",
  "immutableReferences": {},
  "source": "pragma solidity ^0.6.0;\n\nimport \"./HRC20.sol\";\nimport \"./interfaces/IHRC20.sol\";\nimport \"./interfaces/IBowPool.sol\";\nimport \"./interfaces/IBowProxy.sol\";\nimport \"./interfaces/IBowToken.sol\";\nimport \"@openzeppelin/contracts/access/Ownable.sol\";\nimport \"@openzeppelin/contracts/math/SafeMath.sol\";\nimport \"@openzeppelin/contracts/utils/ReentrancyGuard.sol\";\nimport \"./lib/TransferHelper.sol\";\n\n// Proxy\ncontract BowProxy is IBowProxy, HRC20, Ownable, ReentrancyGuard {\n    using SafeMath for uint256;\n\n    struct PoolInfo {\n        address poolAddress;\n        address[] coins;\n        uint256 allocPoint;\n        uint256 accTokenPerShare;\n        uint256 shareRewardRate; //  share reward percent of total release amount. wei\n        uint256 swapRewardRate; //  swap reward percent of total release amount.  wei\n        uint256 totalVolAccPoints; // total volume accumulate points. wei, \n        uint256 totalVolReward; // total volume reword. wei \n        uint256 lastUpdateTime;\n    }\n    struct UserInfo {\n        uint256 amount; // How many LP tokens the user has provided.\n        uint256 volume; // swap volume.\n        uint256 rewardDebt; // Reward debt. See explanation below.\n        uint256 volReward;\n        uint256 farmingReward;\n    }\n\n    event Deposit(address indexed user, uint256 indexed pid, uint256 amount);\n    event Withdraw(address indexed user, uint256 indexed pid, uint256 amount);\n    event EmergencyWithdraw(\n        address indexed user,\n        uint256 indexed pid,\n        uint256 amount\n    );\n\n    // state data\n    PoolInfo[] pools;\n    mapping(uint256 => address[]) poolUsers;\n    uint256 totalAllocPoint = 0;\n    address tokenAddress;\n    mapping(uint256 => mapping(address => UserInfo)) userInfo;\n\n    bool _openMigration = false;\n    address migrateFrom;\n\n    modifier noOpenMigration() {\n        require(!_openMigration, \"a migration is open.\");\n        _;\n    }\n\n    constructor(\n        string memory _name,\n        string memory _symbol,\n        address _tokenAddress\n    ) public HRC20(_name, _symbol) {\n        transferOwnership(msg.sender);\n        tokenAddress = _tokenAddress;\n    }\n\n    function getPoolInfo(uint256 _pid)\n        public\n        view\n        override\n        returns (\n            address _poolAddress,\n            address[] memory _coins,\n            uint256 _allocPoint,\n            uint256 _accTokenPerShare,\n            uint256 _shareRewardRate,\n            uint256 _swapRewardRate,\n            uint256 _totalVolAccPoints,\n            uint256 _totalVolReward,\n            uint256 _lastUpdateTime,\n            uint256[] memory arrData\n        )\n    {\n        arrData = new uint256[](7);\n        _poolAddress = pools[_pid].poolAddress;\n        _coins = pools[_pid].coins;\n        _allocPoint = pools[_pid].allocPoint;\n        arrData[0] = pools[_pid].allocPoint;\n        _accTokenPerShare = pools[_pid].accTokenPerShare;\n        arrData[1] = pools[_pid].accTokenPerShare;\n        _shareRewardRate = pools[_pid].shareRewardRate;\n        arrData[2] = pools[_pid].shareRewardRate;\n        _swapRewardRate = pools[_pid].swapRewardRate;\n        arrData[3] = pools[_pid].swapRewardRate;\n        _totalVolAccPoints = pools[_pid].totalVolAccPoints;\n        arrData[4] = pools[_pid].totalVolAccPoints;\n        _totalVolReward = pools[_pid].totalVolReward;\n        arrData[5] = pools[_pid].totalVolReward;\n        _lastUpdateTime = pools[_pid].lastUpdateTime;\n        arrData[6] = pools[_pid].lastUpdateTime;\n    }\n\n    function getTokenAddress() public view override returns (address taddress) {\n        taddress = tokenAddress;\n    }\n\n    function getUserInfo(uint256 _pid, address user)\n        public\n        view\n        override\n        returns (\n            uint256 _amount,\n            uint256 _volume,\n            uint256 _rewardDebt,\n            uint256 _volReward,\n            uint256 _farmingReward\n        )\n    {\n        _amount = userInfo[_pid][user].amount;\n        _volume = userInfo[_pid][user].volume;\n        _rewardDebt = userInfo[_pid][user].rewardDebt;\n        _volReward = userInfo[_pid][user].volReward;\n        _farmingReward = userInfo[_pid][user].farmingReward;\n    }\n\n    function getPoolUsers(uint256 _pid)\n        public\n        view\n        override\n        returns (address[] memory _users)\n    {\n        _users = poolUsers[_pid];\n    }\n\n    function getPoolsLength() public view override returns (uint256 l) {\n        l = pools.length;\n    }\n\n    function getTotalAllocPoint() public view override returns (uint256 r) {\n        r = totalAllocPoint;\n    }\n\n    function isMigrationOpen() external view override returns (bool r) {\n        r = _openMigration;\n    }\n\n    function getMigrateFrom() public view override returns (address _a) {\n        _a = migrateFrom;\n    }\n\n    function exchange(\n        uint256 _pid,\n        uint256 i,\n        uint256 j,\n        uint256 dx,\n        uint256 min_dy\n    ) external nonReentrant noOpenMigration {\n        require(\n            pools[_pid].poolAddress != address(0),\n            \"address(0) can't be a pool\"\n        );\n        bool exists = false;\n        for (uint256 index = 0; index < poolUsers[_pid].length; index++) {\n            if (poolUsers[_pid][index] == msg.sender) {\n                exists = true;\n                break;\n            }\n        }\n        if (!exists) {\n            poolUsers[_pid].push(msg.sender);\n        }\n        updatePoolForExchange(_pid);\n        TransferHelper.safeTransferFrom(\n            pools[_pid].coins[i],\n            msg.sender,\n            address(this),\n            dx\n        );\n        TransferHelper.safeApprove(\n            pools[_pid].coins[i],\n            pools[_pid].poolAddress,\n            dx\n        );\n        IBowPool(pools[_pid].poolAddress).exchange(i, j, dx, min_dy);\n        uint256 dy = IHRC20(pools[_pid].coins[j]).balanceOf(address(this));\n        require(dy > 0, \"no coin out\");\n        userInfo[_pid][msg.sender].volume = userInfo[_pid][msg.sender]\n            .volume\n            .add(dy.mul(dy).div(dx));\n        require(dy.mul(dy).div(dx) > 0, \"accumulate points is 0\");\n        uint256 tokenAmt =\n            IHRC20(tokenAddress)\n                .balanceOf(address(this))\n                .mul(pools[_pid].swapRewardRate)\n                .div(10**18);\n        uint256 rewardAmt =\n            pools[_pid]\n                .totalVolReward\n                .add(tokenAmt)\n                .mul(dy.mul(dy).div(dx))\n                .div(dy.mul(dy).div(dx).add(pools[_pid].totalVolAccPoints));\n        if (rewardAmt > tokenAmt) {\n            userInfo[_pid][msg.sender].volReward = userInfo[_pid][msg.sender]\n                .volReward\n                .add(tokenAmt);\n            TransferHelper.safeTransfer(tokenAddress, msg.sender, tokenAmt);\n            pools[_pid].totalVolReward = pools[_pid].totalVolReward.add(\n                tokenAmt\n            );\n        } else {\n            userInfo[_pid][msg.sender].volReward = userInfo[_pid][msg.sender]\n                .volReward\n                .add(rewardAmt);\n            TransferHelper.safeTransfer(tokenAddress, msg.sender, rewardAmt);\n            pools[_pid].totalVolReward = pools[_pid].totalVolReward.add(\n                rewardAmt\n            );\n        }\n        pools[_pid].totalVolAccPoints = pools[_pid].totalVolAccPoints.add(\n            dy.mul(dy).div(dx)\n        );\n        TransferHelper.safeTransfer(pools[_pid].coins[j], msg.sender, dy);\n    }\n\n    function getPoolAddress(uint256 _pid)\n        external\n        view\n        noOpenMigration\n        returns (address _poolAddress)\n    {\n        _poolAddress = pools[_pid].poolAddress;\n    }\n\n    function pendingReward(uint256 _pid, address _user)\n        external\n        view\n        noOpenMigration\n        returns (uint256)\n    {\n        PoolInfo storage pool = pools[_pid];\n        UserInfo storage user = userInfo[_pid][_user];\n        uint256 accSushiPerShare = pool.accTokenPerShare;\n        uint256 lpSupply = IHRC20(pool.poolAddress).balanceOf(address(this));\n        if (lpSupply != 0) {\n            uint256 releaseAmt =\n                IBowToken(tokenAddress).availableSupply().sub(\n                    IBowToken(tokenAddress).totalSupply()\n                );\n            uint256 reward =\n                releaseAmt\n                    .mul(pool.shareRewardRate)\n                    .div(10**18)\n                    .mul(pool.allocPoint)\n                    .div(totalAllocPoint);\n            accSushiPerShare = accSushiPerShare.add(\n                reward.mul(10**18).div(lpSupply)\n            );\n        }\n        return\n            user.amount.mul(accSushiPerShare).div(10**18).sub(user.rewardDebt);\n    }\n\n    function massUpdatePools() external noOpenMigration {\n        uint256 length = pools.length;\n        for (uint256 pid = 0; pid < length; ++pid) {\n            updatePool(pid);\n        }\n    }\n\n    function updatePool(uint256 _pid) public noOpenMigration {\n        PoolInfo storage pool = pools[_pid];\n        if (block.timestamp <= pool.lastUpdateTime) {\n            return;\n        }\n        uint256 lpSupply = IHRC20(pool.poolAddress).balanceOf(address(this));\n        if (lpSupply == 0) {\n            pool.lastUpdateTime = block.timestamp;\n            return;\n        }\n        uint256 releaseAmt =\n            IBowToken(tokenAddress).availableSupply().sub(\n                IBowToken(tokenAddress).totalSupply()\n            );\n        uint256 mintAmt = releaseAmt.mul(pool.allocPoint).div(totalAllocPoint);\n        uint256 reward = mintAmt.mul(pool.shareRewardRate).div(10**18);\n        IBowToken(tokenAddress).mint(address(this), mintAmt);\n        pool.accTokenPerShare = pool.accTokenPerShare.add(\n            reward.mul(10**18).div(lpSupply)\n        );\n        pool.lastUpdateTime = block.timestamp;\n    }\n\n    function updatePoolForExchange(uint256 _pid) public noOpenMigration {\n        PoolInfo storage pool = pools[_pid];\n        if (block.timestamp <= pool.lastUpdateTime) {\n            return;\n        }\n        uint256 releaseAmt =\n            IBowToken(tokenAddress).availableSupply().sub(\n                IBowToken(tokenAddress).totalSupply()\n            );\n        uint256 mintAmt = releaseAmt.mul(pool.allocPoint).div(totalAllocPoint);\n        IBowToken(tokenAddress).mint(address(this), mintAmt);\n        uint256 lpSupply = IHRC20(pool.poolAddress).balanceOf(address(this));\n        if (lpSupply > 0) {\n            uint256 reward = mintAmt.mul(pool.shareRewardRate).div(10**18);\n            pool.accTokenPerShare = pool.accTokenPerShare.add(\n                reward.mul(10**18).div(lpSupply)\n            );\n        }\n        pool.lastUpdateTime = block.timestamp;\n    }\n\n    function deposit(uint256 _pid, uint256 _amount) external noOpenMigration {\n        UserInfo storage user = userInfo[_pid][msg.sender];\n        bool exists = false;\n        for (uint256 i = 0; i < poolUsers[_pid].length; i++) {\n            if (poolUsers[_pid][i] == msg.sender) {\n                exists = true;\n                break;\n            }\n        }\n        if (!exists) {\n            poolUsers[_pid].push(msg.sender);\n        }\n        updatePool(_pid);\n        PoolInfo storage pool = pools[_pid];\n        if (user.amount > 0) {\n            uint256 pending =\n                user.amount.mul(pool.accTokenPerShare).div(10**18).sub(\n                    user.rewardDebt\n                );\n            if (pending > 0) {\n                uint256 tokenBal =\n                    IHRC20(tokenAddress)\n                        .balanceOf(address(this))\n                        .mul(pool.shareRewardRate)\n                        .div(10**18);\n                if (tokenBal >= pending) {\n                    userInfo[_pid][msg.sender].farmingReward = userInfo[_pid][\n                        msg.sender\n                    ]\n                        .farmingReward\n                        .add(pending);\n                    TransferHelper.safeTransfer(\n                        tokenAddress,\n                        msg.sender,\n                        pending\n                    );\n                } else {\n                    userInfo[_pid][msg.sender].farmingReward = userInfo[_pid][\n                        msg.sender\n                    ]\n                        .farmingReward\n                        .add(tokenBal);\n                    TransferHelper.safeTransfer(\n                        tokenAddress,\n                        msg.sender,\n                        tokenBal\n                    );\n                }\n            }\n        }\n        if (_amount > 0) {\n            TransferHelper.safeTransferFrom(\n                pool.poolAddress,\n                msg.sender,\n                address(this),\n                _amount\n            );\n            user.amount = user.amount.add(_amount);\n        }\n        user.rewardDebt = user.amount.mul(pool.accTokenPerShare).div(10**18);\n        emit Deposit(msg.sender, _pid, _amount);\n    }\n\n    function withdraw(uint256 _pid, uint256 _amount) external noOpenMigration {\n        UserInfo storage user = userInfo[_pid][msg.sender];\n        require(user.amount >= _amount, \"withdraw: not good\");\n        updatePool(_pid);\n        PoolInfo storage pool = pools[_pid];\n        uint256 pending =\n            user.amount.mul(pool.accTokenPerShare).div(10**18).sub(\n                user.rewardDebt\n            );\n        if (pending > 0) {\n            uint256 tokenBal =\n                IHRC20(tokenAddress)\n                    .balanceOf(address(this))\n                    .mul(pool.shareRewardRate)\n                    .div(10**18);\n            if (tokenBal >= pending) {\n                userInfo[_pid][msg.sender].farmingReward = userInfo[_pid][\n                    msg.sender\n                ]\n                    .farmingReward\n                    .add(pending);\n                TransferHelper.safeTransfer(tokenAddress, msg.sender, pending);\n            } else {\n                userInfo[_pid][msg.sender].farmingReward = userInfo[_pid][\n                    msg.sender\n                ]\n                    .farmingReward\n                    .add(tokenBal);\n                TransferHelper.safeTransfer(tokenAddress, msg.sender, tokenBal);\n            }\n        }\n        if (_amount > 0) {\n            user.amount = user.amount.sub(_amount);\n            TransferHelper.safeTransfer(\n                pool.poolAddress,\n                address(msg.sender),\n                _amount\n            );\n        }\n        user.rewardDebt = user.amount.mul(pool.accTokenPerShare).div(10**18);\n        emit Withdraw(msg.sender, _pid, _amount);\n    }\n\n    function emergencyWithdraw(uint256 _pid) external noOpenMigration {\n        PoolInfo storage pool = pools[_pid];\n        UserInfo storage user = userInfo[_pid][msg.sender];\n        uint256 amount = user.amount;\n        user.amount = 0;\n        user.rewardDebt = 0;\n        TransferHelper.safeTransfer(\n            pool.poolAddress,\n            address(msg.sender),\n            amount\n        );\n        emit EmergencyWithdraw(msg.sender, _pid, amount);\n    }\n\n    function openMigration() external onlyOwner {\n        _openMigration = true;\n    }\n\n    function closeMigration() external onlyOwner {\n        _openMigration = false;\n    }\n\n    function addPool(\n        address _poolAddress,\n        address[] calldata _coins,\n        uint256 _allocPoint\n    ) external onlyOwner {\n        totalAllocPoint = totalAllocPoint.add(_allocPoint);\n        pools.push(\n            PoolInfo({\n                poolAddress: _poolAddress,\n                coins: _coins,\n                allocPoint: _allocPoint,\n                accTokenPerShare: 0,\n                shareRewardRate: 500_000_000_000_000_000,\n                swapRewardRate: 500_000_000_000_000_000,\n                totalVolAccPoints: 0,\n                totalVolReward: 0,\n                lastUpdateTime: block.timestamp\n            })\n        );\n    }\n\n    function setPoolRewardRate(\n        uint256 _pid,\n        uint256 shareRate,\n        uint256 swapRate\n    ) external {\n        require(\n            shareRate.add(swapRate) <= 1_000_000_000_000_000_000,\n            \"sum rate lower then 100%\"\n        );\n        pools[_pid].shareRewardRate = shareRate;\n        pools[_pid].swapRewardRate = swapRate;\n    }\n\n    function setPoolCoins(uint256 _pid, address[] calldata _coins) external {\n        pools[_pid].coins = _coins;\n    }\n\n    function setPoolAllocPoint(uint256 _pid, uint256 _allocPoint)\n        external\n        onlyOwner\n    {\n        totalAllocPoint = totalAllocPoint.sub(pools[_pid].allocPoint).add(\n            _allocPoint\n        );\n        pools[_pid].allocPoint = _allocPoint;\n    }\n\n    function migratePoolInfo(IBowProxy from) private {\n        address _poolAddress;\n        address[] memory _coins;\n        uint256[] memory _data;\n        for (uint256 pid = 0; pid < from.getPoolsLength(); pid++) {\n            (_poolAddress, _coins, , , , , , , , _data) = from.getPoolInfo(pid);\n            totalAllocPoint = totalAllocPoint.add(_data[0]);\n            pools.push(\n                PoolInfo({\n                    poolAddress: _poolAddress,\n                    coins: _coins,\n                    allocPoint: _data[0],\n                    accTokenPerShare: _data[1],\n                    shareRewardRate: _data[2],\n                    swapRewardRate: _data[3],\n                    totalVolAccPoints: _data[4],\n                    totalVolReward: _data[5],\n                    lastUpdateTime: _data[6]\n                })\n            );\n        }\n    }\n\n    function transferMinterTo(address to) external override onlyOwner {\n        require(_openMigration, \"on allow when migration is open\");\n        IBowToken(tokenAddress).transferMinterTo(to);\n    }\n\n    function approveTokenTo(address nMinter) external override onlyOwner {\n        IBowToken token = IBowToken(tokenAddress);\n        require(\n            token.getMinter() == nMinter,\n            \"only allow to approve token to a minter.\"\n        );\n        uint256 balance = token.balanceOf(address(this));\n        TransferHelper.safeApprove(tokenAddress, nMinter, balance);\n    }\n\n    function migrate(address _from) external onlyOwner {\n        _openMigration = true;\n        IBowProxy from = IBowProxy(_from);\n        require(from.isMigrationOpen(), \"from's migration not open.\");\n        require(migrateFrom == address(0), \"migration only once.\");\n        migratePoolInfo(from);\n        tokenAddress = from.getTokenAddress();\n        uint256 tokenBal = IHRC20(tokenAddress).balanceOf(_from);\n        TransferHelper.safeTransferFrom(\n            tokenAddress,\n            _from,\n            address(this),\n            tokenBal\n        );\n\n        migrateFrom = _from;\n    }\n}\n",
  "sourcePath": "/Users/admin/github.com/holynull/bow-contracts/contracts/BowProxy.sol",
  "compiler": {
    "name": "solc",
    "version": "0.6.6+commit.6c089d02.Emscripten.clang"
  },
  "schemaVersion": "3.3.3",
  "updatedAt": "2021-01-25T07:16:01.930Z",
  "devdoc": {
    "methods": {
      "allowance(address,address)": {
        "details": "See {IHRC20-allowance}."
      },
      "approve(address,uint256)": {
        "details": "See {IHRC20-approve}.     * Requirements:     * - `spender` cannot be the zero address."
      },
      "balanceOf(address)": {
        "details": "See {IHRC20-balanceOf}."
      },
      "decimals()": {
        "details": "Returns the number of decimals used to get its user representation. For example, if `decimals` equals `2`, a balance of `505` tokens should be displayed to a user as `5,05` (`505 / 10 ** 2`).     * Tokens usually opt for a value of 18, imitating the relationship between Ether and Wei. This is the value {HRC20} uses, unless {_setupDecimals} is called.     * NOTE: This information is only used for _display_ purposes: it in no way affects any of the arithmetic of the contract, including {IHRC20-balanceOf} and {IHRC20-transfer}."
      },
      "decreaseAllowance(address,uint256)": {
        "details": "Atomically decreases the allowance granted to `spender` by the caller.     * This is an alternative to {approve} that can be used as a mitigation for problems described in {IHRC20-approve}.     * Emits an {Approval} event indicating the updated allowance.     * Requirements:     * - `spender` cannot be the zero address. - `spender` must have allowance for the caller of at least `subtractedValue`."
      },
      "increaseAllowance(address,uint256)": {
        "details": "Atomically increases the allowance granted to `spender` by the caller.     * This is an alternative to {approve} that can be used as a mitigation for problems described in {IHRC20-approve}.     * Emits an {Approval} event indicating the updated allowance.     * Requirements:     * - `spender` cannot be the zero address."
      },
      "name()": {
        "details": "Returns the name of the token."
      },
      "owner()": {
        "details": "Returns the address of the current owner."
      },
      "renounceOwnership()": {
        "details": "Leaves the contract without owner. It will not be possible to call `onlyOwner` functions anymore. Can only be called by the current owner.     * NOTE: Renouncing ownership will leave the contract without an owner, thereby removing any functionality that is only available to the owner."
      },
      "symbol()": {
        "details": "Returns the symbol of the token, usually a shorter version of the name."
      },
      "totalSupply()": {
        "details": "See {IHRC20-totalSupply}."
      },
      "transfer(address,uint256)": {
        "details": "See {IHRC20-transfer}.     * Requirements:     * - `recipient` cannot be the zero address. - the caller must have a balance of at least `amount`."
      },
      "transferFrom(address,address,uint256)": {
        "details": "See {IHRC20-transferFrom}.     * Emits an {Approval} event indicating the updated allowance. This is not required by the EIP. See the note at the beginning of {HRC20};     * Requirements: - `sender` and `recipient` cannot be the zero address. - `sender` must have a balance of at least `amount`. - the caller must have allowance for ``sender``'s tokens of at least `amount`."
      },
      "transferOwnership(address)": {
        "details": "Transfers ownership of the contract to a new account (`newOwner`). Can only be called by the current owner."
      }
    }
  },
  "userdoc": {
    "methods": {}
  }
}